:020000040000FA
:0400000021EF00F0FC
:08000800BAEF03F0120100023F
:1000100000000008D8040B000100000000010902E4
:1000200020000101008064090400000200000000BB
:10003000070581024000000705010240000004039B
:100040000904BDEF03F0836F7D51E16E7E51E26ED6
:10005000846B41EF00F080518425606F000E5E6E6E
:1000600081515E20616F82515E20626F6051F66E39
:100070006151F76E6251F86EF89C0900F550E66E1A
:10008000842B8451835DD8A42BEF00F0120004016F
:1000900004BF120000016C516A5DD8B455EF00F046
:1000A000D8B055EF00F06A516C6FD8806C516B5529
:1000B0007F6F080E7F5DD8B463EF00F0D8A063EFC8
:1000C00000F0080E7F6F780E6B25606F000E5E6E7D
:1000D000040E5E20616F60510401066F00016151E2
:1000E0000401076F00017F510401056F04AD7DEF2E
:1000F00000F0880E046F7FEF00F0C80E046F00015F
:100100007F516B276B516C5D12006B6B6C6B6A6B74
:100110000401049D47EF00F07D6F7D510401786F6D
:1001200000016B6B010E6C6F010E6A6F0401049D80
:1001300047EF00F0840E040100131200080E0401C2
:10014000016F100E026F040E036F030E00016E5D4F
:10015000D8A4B1EF00F08C0E7A6F0401046BB3EFFA
:1001600000F0C80E7A6F00017A510401006F12008E
:100170007A6FD8907A357D6FD8907D37D8907D375B
:100180007D297C6F04EE00F07C51E926400EEF6E75
:1001900004EE00F07D51E926800EEF6E12000CADEA
:1001A000D5EF00F0880E0C6F1200C80E0C6F120015
:1001B000550EA76EAA0EA76EA68212002451F86EE5
:1001C0002351F76E2251F66E1200FF0E00017A6F76
:1001D0007B6FCD6A6D6A7A517B11D8B4F6EF00F06F
:1001E0007A077A29D8B47B07EBEF00F012000401FC
:1001F000F9510001696F060E695DD8A46FEF01F037
:100200000401FB5100017A6F0401FA5100017C6F77
:100210006C6B010E7A5DD8A420EF01F0120E6C6FAA
:10022000780E7D6F040E7E6F0C0E806F000E816F56
:10023000000E4009826F6C5123EC00F054EF01F086
:10024000020E7A5DD8A437EF01F0200E6C6F780EA5
:100250007D6F040E7E6F1E0E806F000E816F000E8C
:100260004009826F6C5123EC00F054EF01F0030E53
:100270007A5DD8A452EF01F07C51D8A454EF01F07C
:10028000040E6C6F780E7D6F040E7E6F3E0E806FD5
:10029000000E816F000E4009826F6C5123EC00F05C
:1002A00054EF01F0220E7A5D00016C51D8B46DEF6D
:1002B00001F00401FF51D8A463EF01F0FE510001E9
:1002C0006A6F66EF01F0FF0E00016A6F030E6E6F3A
:1002D0006B6B0401049D47EF00F09AEF00F0050EF0
:1002E000695DD8A480EF01F00401FA5100016F6F3D
:1002F000010E6D6F85EC00F0060E00016E6F1200AE
:10030000090E695DD8A499EF01F0060E6E6F85ECB9
:1003100000F07188718471827186400E04010C6F47
:10032000400E096F200E0A6F040E0B6F800E086FCF
:1003300012000A0E695DD8A4A3EF01F0030E6E6FE0
:10034000010E8CEF00F06951D8A4AAEF01F0000E65
:100350008CEF00F01200D8906C30726FD89072332E
:10036000D89072336CA4C1EF01F0D890040104312D
:100370000001746FD89074330F0E7415736FCBEF48
:1003800001F0D890040100310001746FD8907433EB
:100390000F0E7415736F7251D8A44BEF02F00D0E4F
:1003A000735DD8A4FAEF01F0756B04EE10F075518F
:1003B000E926EF50606F04EEF8F07551E9266051C0
:1003C000EF6E752B080E755DD8A4D5EF01F06D9812
:1003D0009EEC00F0300E0401F8150001746F7451AA
:1003E000D8B4F7EF00F0200E745DD8B41200400EC0
:1003F000745D1200090E735DD8A41AEF02F0030EAB
:100400006E5DD8B447EF00F0060E6E5DD8A413EF12
:1004100002F06E6B010E6D5DD8A419EF02F06F5102
:100420006E6E6D6B1200050E6E5DD8B41200040E78
:100430006E5D1200020E735DD8A42DEF02F0030E64
:100440006E5DD8B447EF00F0040E6E5DD8B41200B4
:10045000060E6E5DD8B46E6B1200010E735DD8A4EB
:1004600069EF03F0050E6E5DD8A43AEF02F06E6BF3
:100470009EEF00F0020E6E5DD8B49EEF00F0030E0A
:100480006E5DD8A449EF02F09EEC00F000016E6BA7
:1004900012009EEF00F06CB41200D8907235756FA8
:1004A000D8907537D8907537020E7525746F04EEA5
:1004B00000F07451E926EF50766F030E7525746FC6
:1004C00004EE00F07451E926EF50776F7529746FD0
:1004D00004010D6B2051D8A477EF02F0140E226FA7
:1004E000010E236F040E0D6FCD6A61EF03F0040E51
:1004F000205DD8A499EF02F0A69EA69C0001796B1E
:100500008EEF02F0225100017925A96EA68004EE3B
:1005100025F07951E926A850EF6E792B7951040125
:10052000215DD8A482EF02F0050E21250D6F61EF49
:1005300003F0010E205DD8B4A3EF02F0060E205D9B
:10054000D8A4BDEF02F0DEEC00F00001796BB2EF51
:1005500002F0090004EE25F000017951E926F5507A
:10056000EF6E792B79510401215DD8A4A9EF02F037
:10057000050E21250D6F61EF03F0020E205DD8A45A
:10058000EBEF02F0840EA66EDEEC00F0F00EF61635
:100590000001686BE1EF02F004EE25F00001685104
:1005A000E926EF50F56E0D000F0E6815786F0F0EEF
:1005B000785DD8A4DFEF02F00A00D8EC00F000016B
:1005C000682B68510401215DD8A4CCEF02F0010E24
:1005D0000D6F61EF03F0030E205DD8A40BEF03F065
:1005E000940EA66EDEEC00F00001796B01EF03F0D3
:1005F000D8EC00F0200EF626F650D8B4F72A000109
:10060000792B79510401215DD8A4F8EF02F0010E95
:100610000D6F61EF03F0050E205DD8A42FEF03F0FE
:100620000001796B25EF03F0225100017925A96EB5
:1006300004EE25F07951E926EF50A86ED8EC00F0D1
:10064000A6B220EF03F00001792B79510401215D5E
:10065000D8A414EF03F0010E0D6F61EF03F0070E45
:10066000205DD8A453EF03F0840EA66EDEEC00F0FC
:100670000001796B49EF03F004EE25F00001795198
:10068000E926EF50F56E0C00D8EC00F00D000001EB
:10069000792B79510401215DD8A43CEF03F0010EC0
:1006A0000D6F61EF03F0320E205DD8B461EF03F0FF
:1006B000FF0E205DD8A461EF03F0E5EC00F000EF41
:1006C00004F00D51D8A4CFEC00F000017251B8EF46
:1006D00000F01200A1AAB9EF03F0A19A0001716B1A
:1006E00068A676EF03F0ABEC01F068960001712B81
:1006F000040E715DD8A470EF03F068A0AFEF03F0B3
:100700006A6A686A6F6B716A726A736A746A756A18
:10071000766A776A786A796A100E7A6E7B6A7C6A82
:100720007D6A7E6A7F6A160E706E68A69BEF03F084
:10073000689695EF03F06E6B6D6B6D98080E040173
:10074000056F180E066F040E076F046B080E016F1D
:10075000100E026F040E036F8C0E006F689068BA63
:10076000689A68B8689868BC689C68A2B9EF03F09A
:10077000689212000CEF04F011006D6A140E6F6E97
:100780006B0E696EA09A686A6D6A6D86200E040110
:100790000E6F040E0F6F310ECD6EF86A080EF76EF5
:1007A000030EF66E0900FF0EF55CD8B4CD6A0001A9
:1007B000706B6AEC03F09EA0D9EF03F00001702B80
:1007C0009E90DC0E705DD8B4D9EF03F0D8A0D9EFBD
:0A07D00003F0E5EC00F000EF04F088
:020000040030CA
:0E000000240E391E0081E0000FC00FE00F40FB
:00000001FF
